:0400000063EF00F0BA
:06000800388282ED01F0D8
:100018003880D8CF13F0E8CF14F0E0CF15F0FACF3E
:1000280016F0FBCF17F0E9CF18F0EACF19F0E1CFBF
:100038001AF0E2CF1BF0D9CF1CF0DACF1DF0F3CFC6
:100048001EF0F4CF1FF0F6CF20F0F7CF21F0F8CF55
:1000580022F0F5CF23F038C024F039C025F03AC09B
:1000680026F03BC027F027C03BF026C03AF025C059
:1000780039F024C038F023C0F5FF22C0F8FF21C0B2
:10008800F7FF20C0F6FF1FC0F4FF1EC0F3FF1DC01E
:10009800DAFF1CC0D9FF1BC0E2FF1AC0E1FF19C07C
:1000A800EAFF18C0E9FF17C0FBFF16C0FAFF15C02A
:1000B800E0FF14C0E8FF13C0D8FF38901000F6EF37
:1000C80001F042EC02F037EC02F04E0E296E200EE1
:1000D800286E76C02AF077C02BF0CDEC01F028C04E
:1000E80066F029C067F0A00E2E6E860E2F6E010EE8
:1000F800306E000E316E76C028F077C029F076C0D9
:100108002AF077C02BF012EC02F028C032F029C098
:1001180033F0346A356A1BEC01F02EC068F02FC04A
:1001280069F074C072F075C073F074C036F075C0B1
:1001380037F0361E371E364A372A000176513624E4
:10014800706F77513720716F898072C028F073C043
:1001580029F025EC02F0899070C028F071C029F0D0
:1001680025EC02F080A204D000016C4B6D2B1ED050
:1001780000016C516D11D8B419D06F51D8A403D0B7
:100188006E51D8B404D0000E6F6F000E07D06C51BA
:10019800665D6D516759D8B003D0010E6E6F02D0FD
:1001A800010E6F6F000E6D6F000E6C6F6F51D8B43B
:1001B8001AD06A4B6B2B68516A19C6E169516B19E1
:1001C800D8A4C2D77651745D77517559D8B003D089
:1001D800744B752B1ED0000E6F6F1BD074C072F05D
:1001E80075C073F01BD06E51D8B4AED76A4B6B2B69
:1001F80068516A19A9E169516B19D8A4A5D7745136
:100208007511D8B404D07407D8A0750702D0000EB1
:100218006E6F000E6B6F000E6A6FE0D774C036F019
:1002280075C037F0361E371E364A372A87D7000E74
:100238000001616F35AE0AD0351E341E331E326C94
:10024800000E332234223522010E616F31AE0AD0FE
:10025800311E301E2F1E2E6C000E2F22302231220E
:10026800010E611B000E626F000E636F000E646F5B
:10027800000E656F3250331034103510D8B42AD0C0
:10028800010E606F06D0D8903236333634363536A4
:10029800602B35AEF8D7D890623763376437653747
:1002A80032502E5C33502F58345030583550315816
:1002B800D8A009D032502E5E33502F5A3450305ABD
:1002C8003550315A6281D890353234323332323235
:1002D800602FE1D76151D8B408D0651F641F631F30
:1002E800626D000E63236423652362C02EF063C031
:1002F8002FF064C030F065C031F012000600FACF6C
:1003080001F0FBCF02F0E9CF03F0EACF04F0E1CF30
:1003180005F0E2CF06F0D9CF07F0DACF08F0F3CF37
:1003280009F0F4CF0AF0F6CF0BF0F7CF0CF0F8CFC6
:100338000DF0F5CF0EF038C00FF039C010F03AC00C
:1003480011F03BC012F012C03BF011C03AF010C0DF
:1003580039F00FC038F00EC0F5FF0DC0F8FF0CC023
:10036800F7FF0BC0F6FF0AC0F4FF09C0F3FF08C08F
:10037800DAFF07C0D9FF06C0E2FF05C0E1FF04C0ED
:10038800EAFF03C0E9FF02C0FBFF01C0FAFF389291
:100398001100000E2D6E000E2C6E2A502B10D8B4B2
:1003A8001CD0010E2E6E04D0D8902A362B362E2A59
:1003B8002BAEFAD7D8902C362D362A50285C2B50E5
:1003C8002958D8A005D02A50285E2B50295A2C80AD
:1003D800D8902B322A322E2EEDD72CC028F02DC0E3
:1003E80029F01200800EF66E040EF76E000EF86EFD
:1003F80000EE74F010EE04F00900F5CFEEFFE550C2
:10040800E150FAE100016F6B6E6B6D6B6C6B6B6B9F
:100418006A6B38903892000165EF00F028502A0284
:10042800F3CF2CF0F4CF2DF028502B02F3502D26CB
:1004380029502A02F3502D262CC028F02DC029F06F
:100448001200000E2B6E000E2A6E06D0A60EE82EA5
:10045800FED700D02A4A2B2A28502A5C29502B582C
:10046800D8B01200F3D7000E806E000E896E0F0E02
:0E047800C16E9290928212000100C800120024
:020000040020DA
:08000000FFFFFFFFFFFFFFFF00
:020000040030CA
:0E000000000C191EFF8180FF0FC00FE00F40A3
:00000001FF
